:020000040000FA
:0600000034EF07F01200CE
:020006001200E6
:08000800DACFE4FFE2CFDAFFDA
:10001000E9CFE4FFEACFE4FFF6CFE4FFF7CFE4FF58
:10002000F3CFE4FFF4CFE4FFFACFE4FF00EE00F0FB
:10003000140EE80403E3EECFE4FFFBD7E652F2A28E
:100040002BD00A6A0B6AC80E0C6E420E0D6E6CC085
:1000500005F06DC006F06EC007F06FC008F0F1EC5F
:1000600005F0010A18E10A6A0B6A200E0C6E410EB7
:100070000D6E6CC005F06DC006F06EC007F06FC06D
:1000800008F0A2EC04F005C06CF006C06DF007C0EB
:100090006EF008C06FF0F292F0A029D00A6A0B6AE5
:1000A0000C6A0D6A6CC005F06DC006F06EC007F0FA
:1000B0006FC008F0E8EC05F0010A18E10A6A0B6A63
:1000C000200E0C6E410E0D6E6CC005F06DC006F07A
:1000D0006EC007F06FC008F0A1EC04F005C06CF032
:1000E00006C06DF007C06EF008C06FF0F090F0A28F
:1000F00006D000016C6B6D6B6E6B6F6BF0929EA205
:1001000005D000016A2B000E6B239E92E55200EE93
:1001100013F0140EE80403E3E5CFEDFFFBD7E5CFC2
:10012000FAFFE5CFF4FFE5CFF3FFE5CFF7FFE5CF2B
:10013000F6FFE5CFEAFFE5CFE9FFE5CFDAFF1100F3
:10014000C290C168070E936E956A966A946A0F0E04
:10015000E66EE66A7FDBE552E552300EE66E99DB2D
:10016000E552380EE66E95DBE5520F0EE66E91DB3A
:10017000E552060EE66E8DDBE552010EE66E89DB7A
:10018000E552020EE66EE66A65DBE552E552D09E68
:10019000F28EF28CF288F086F088F292F090F09273
:1001A000F19CF19AF1989492CA80CA82CC6ACB6889
:1001B0009E929D82BA80BA82BA84BA86CA84000EA0
:1001C000E66EE66A92DBE552E5520001570E6A5D83
:1001D000030E6B5901E23CD3020EE66E5ADBE55288
:1001E000200EE66E6CDBE552500EE66E68DBE552E3
:1001F000570EE66E64DBE5524D0EE66E60DBE552AF
:100200003A0EE66E5CDBE5520A6A0B6AC80E0C6EAB
:10021000420E0D6E6CC005F06DC006F06EC007F0AA
:100220006FC008F0F1EC05F0010A36E1300EE66E21
:1002300046DBE5520A6A0B6A200E0C6E410E0D6E0B
:100240006CC005F06DC006F06EC007F06FC008F01E
:1002500038EC05F005C014F006C015F007C016F024
:1002600008C017F00A6A0B6A400E0C6E420E0D6E43
:1002700014C005F015C006F016C007F017C008F04E
:10028000A2EC04F08BEC05F00750E66E18DBE552AB
:10029000300EE66E14DBE5520A6A0B6AC80E0C6E6D
:1002A000420E0D6E6CC005F06DC006F06EC007F01A
:1002B0006FC008F0F1EC05F0010A0CE0310EE66EBB
:1002C000FEDAE552300EE66EFADAE552300EE66EF0
:1002D000F6DAE552250EE66EF2DAE5520A6A0B6AA4
:1002E0000C6A0D6A6CC005F06DC006F06EC007F0B8
:1002F0006FC008F0E1EC05F0010A2CE1C10EE66EDA
:10030000C8DAE552DB0EE66EDADAE552DB0EE66EAF
:10031000D6DAE552DB0EE66ED2DAE552DB0EE66E99
:10032000CEDAE552DB0EE66ECADAE552DB0EE66E99
:10033000C6DAE552DB0EE66EC2DAE552DB0EE66E99
:10034000BEDAE552DB0EE66EBADAE552DB0EE66E99
:10035000B6DAE5520A6A0B6A200E0C6E410E0D6E7B
:100360006CC005F06DC006F06EC007F06FC008F0FD
:10037000E1EC05F0010A2BE1C10EE66E8ADAE552E6
:10038000E6689DDAE552DB0EE66E99DAE552DB0EA1
:10039000E66E95DAE552DB0EE66E91DAE552DB0E9B
:1003A000E66E8DDAE552DB0EE66E89DAE552DB0E9B
:1003B000E66E85DAE552DB0EE66E81DAE552DB0E9B
:1003C000E66E7DDAE552DB0EE66E79DAE5520A6A10
:1003D0000B6AA00E0C6E410E0D6E6CC005F06DC068
:1003E00006F06EC007F06FC008F0E1EC05F0010AFE
:1003F0002AE1C10EE66E4DDAE552E66860DAE552B2
:10040000E6685DDAE552DB0EE66E59DAE552DB0EA0
:10041000E66E55DAE552DB0EE66E51DAE552DB0E9A
:10042000E66E4DDAE552DB0EE66E49DAE552DB0E9A
:10043000E66E45DAE552DB0EE66E41DAE552DB0E9A
:10044000E66E3DDAE5520A6A0B6AF00E0C6E410E5A
:100450000D6E6CC005F06DC006F06EC007F06FC089
:1004600008F0E1EC05F0010A29E1C10EE66E11DAAF
:10047000E552E66824DAE552E66821DAE552E668F4
:100480001EDAE552DB0EE66E1ADAE552DB0EE66E98
:1004900016DAE552DB0EE66E12DAE552DB0EE66E98
:1004A0000EDAE552DB0EE66E0ADAE552DB0EE66E98
:1004B00006DAE552DB0EE66E02DAE5520A6A0B6AEC
:1004C000200E0C6E420E0D6E6CC005F06DC006F075
:1004D0006EC007F06FC008F0E1EC05F0010A28E1FA
:1004E000C10EE66ED6D9E552E668E9D9E552E6686E
:1004F000E6D9E552E668E3D9E552E668E0D9E55287
:10050000DB0EE66EDCD9E552DB0EE66ED8D9E5529D
:10051000DB0EE66ED4D9E552DB0EE66ED0D9E5529D
:10052000DB0EE66ECCD9E552DB0EE66EC8D9E5529D
:100530000A6A0B6A480E0C6E420E0D6E6CC005F016
:100540006DC006F06EC007F06FC008F0E1EC05F07A
:10055000010A27E1C10EE66E9CD9E552E668AFD9E3
:10056000E552E668ACD9E552E668A9D9E552E668F5
:10057000A6D9E552E668A3D9E552DB0EE66E9FD90F
:10058000E552DB0EE66E9BD9E552DB0EE66E97D99F
:10059000E552DB0EE66E93D9E552DB0EE66E8FD99F
:1005A000E5520A6A0B6A700E0C6E420E0D6E6CC03C
:1005B00005F06DC006F06EC007F06FC008F0E1EC0A
:1005C00005F0010A26E1C10EE66E63D9E552E66840
:1005D00076D9E552E66873D9E552E66870D9E552F6
:1005E000E6686DD9E552E6686AD9E552E66867D9EA
:1005F000E552DB0EE66E63D9E552DB0EE66E5FD99F
:10060000E552DB0EE66E5BD9E552DB0EE66E57D99E
:10061000E5520A6A0B6A8C0E0C6E420E0D6E6CC0AF
:1006200005F06DC006F06EC007F06FC008F0E1EC99
:1006300005F0010A25E1C10EE66E2BD9E552E66808
:100640003ED9E552E6683BD9E552E66838D9E5522D
:10065000E66835D9E552E66832D9E552E6682FD921
:10066000E552E6682CD9E552DB0EE66E28D9E55254
:10067000DB0EE66E24D9E552DB0EE66E20D9E5529C
:100680000A6A0B6AA00E0C6E420E0D6E6CC005F06D
:100690006DC006F06EC007F06FC008F0E1EC05F029
:1006A000010A24E1C10EE66EF4D8E552E66807D9E6
:1006B000E552E66804D9E552E66801D9E552E668F4
:1006C000FED8E552E668FBD8E552E668F8D8E55270
:1006D000E668F5D8E552E668F2D8E552DB0EE66E3C
:1006E000EED8E552DB0EE66EEAD8E5520A6A0B6AEE
:1006F000B40E0C6E420E0D6E6CC005F06DC006F0AF
:100700006EC007F06FC008F0E1EC05F0010A23E1CC
:10071000C10EE66EBED8E552E668D1D8E552E6686D
:10072000CED8E552E668CBD8E552E668C8D8E5529F
:10073000E668C5D8E552E668C2D8E552E668BFD893
:10074000E552E668BCD8E552E668B9D8E552DB0E5A
:10075000E66EB5D8E5520A6A0B6AC80E0C6E420EF8
:100760000D6E6CC005F06DC006F06EC007F06FC076
:1007700008F0E1EC05F0010A22E1C10EE66E89D82D
:10078000E552E6689CD8E552E66899D8E552E668F5
:1007900096D8E552E66893D8E552E66890D8E552D7
:1007A000E6688DD8E552E6688AD8E552E66887D8CB
:1007B000E552E66884D8E552E66881D8E552166AC3
:1007C000C00E176E7F0E186E440E196E1E6A1F6AD9
:1007D000C80E206E420E216E6CC00AF06DC00BF088
:1007E0006EC00CF06FC00DF01EC005F01FC006F00B
:1007F00020C007F021C008F038EC05F005C01AF061
:1008000006C01BF007C01CF008C01DF01AC00AF09B
:100810001BC00BF01CC00CF01DC00DF016C005F085
:1008200017C006F018C007F019C008F038EC05F042
:10083000B2EC05F006C014F007C015F014C0E6FFD6
:1008400015C0E6FF52D8E552E55200016A6B6B6BAA
:10085000BCD41200D9CFE6FFE1CFD9FFD950FD0FAC
:10086000E96EFF0EDA20EA6E000ED880EE54000E1C
:10087000ED540BE2320EE66E42EC07F0E552FD0E4F
:10088000DB06FE0E01E2DB06E9D7E552E7CFD9FF32
:100890001200D9CFE6FFE1CFD9FF84948490FE0EF9
:1008A000DB50836E8482000000008492140EE66E9A
:1008B00042EC07F0E552E552E7CFD9FF1200D9CF5D
:1008C000E6FFE1CFD9FF84948480FE0EDB50836E77
:1008D0008482000000008492140EE66E42EC07F061
:1008E000E552E552E7CFD9FF1200D9CFE6FFE1CFBD
:1008F000D9FFFD0EDBCF14F0FE0EDBCF15F0040E9A
:10090000D89014361536E804FBE10F0E1410BA6EB9
:10091000FD0EDBCF14F0FE0EDBCF15F0D8901532B4
:100920001432D890153214321450BB6EE552E7CF12
:04093000D9FF1200D9
:0C0934000100A00E00006A000000060098
:020940000000B5
:0E0942000D7E0F6AA7EC06F0BFEC06F00FB6B4
:100950004FEF06F00FA20AD00FAA03D00FBE4FEF41
:1009600006F00FA45BEF06F058EF06F00FAA05D0D3
:100970000FAC5BEF06F058EF06F00FA00AD00FA8FF
:1009800008D00FBE04D00FA402D064EF06F068EFC9
:1009900006F0126A036A0D50085C116E10E305C080
:1009A00013F006C000F007C001F008C010F00AC044
:1009B00005F00BC006F00CC007F00F3A09D00AC0D2
:1009C00013F00BC000F00CC001F00DC010F0116C62
:1009D0000F9E0FBC0F8E10C002F00FB097EF06F005
:1009E0001A0E116097EF06F0026A086A0FA408D089
:1009F000056C061E071E081EE86A0622072208224A
:100A00000FAC08D0136C001E011E021EE86A002203
:100A100001220222046A115207E00834073206322A
:100A200005320432112EF9D7055013260650002244
:100A3000075001220850022204C012F00F9E02AE9D
:100A40000BD0126C131E001E011E021EE86A132238
:100A50000022012202220F8E02A006D0D88001328D
:100A6000003213321232102A10C002F06BEF06F07F
:100A70000F6AA7EC06F0BFEC06F00FB64FEF06F0DA
:100A80000FA205D00FBA4FEF06F056EF06F00FBADF
:100A900062EF06F00FA005D00FB84FEF06F062EF3F
:100AA00006F00FB856EF06F0036A7F0E0824026EB8
:100AB000E86A03220D50025EE86A035A1A0E106EAD
:100AC000086A126A136A006A016A0A50055E0B50CE
:100AD000065A0C50075A000E085A09E70A50052614
:100AE0000B5006220C500722000E082201D0128A59
:100AF000D8900536063607360836D89012361336A3
:100B000000360136102EE1D7075006100510D8A484
:100B1000128A6BEF06F00F6AA7EC06F00FB695EF9E
:100B200005F00FA20AD00FB403D07F0E076E19D0C4
:100B3000800E076E16D0076A14D00FB0FCD7870E50
:100B40000860F1D77E0E0864F6D7860E085C04E0D4
:100B5000D8900732082AF9D70FA403D0076C07AE44
:100B6000EAD712000F6AA7EC06F00FB6BCEF05F04B
:100B70000FA20ED00FB405D07F0E076EFF0E066ECB
:100B80001FD0800E076E066A1BD0076A066A18D04F
:100B90000FB0FBD78F0E0860EDD77E0E0864F5D737
:100BA0008E0E085C05E0D89007320632082AF8D786
:100BB0000FA406D0066C071EE86A072207AEE5D729
:100BC0001200FAEC05F00FB6000C0FB0010C000C8F
:100BD000FAEC05F00FB6000C0FB0000C0FB4000CCF
:100BE000010CFAEC05F00FB6000C0FB0000C0FA4CE
:100BF000000C010C0F6AA7EC06F0BFEC06F00FB674
:100C000012000FAE08D00FA004D00FA802D00F80A2
:100C100012000F9012000D50085C0BE10C50075CA5
:100C200008E10B50065C05E10A50055C02E10F800B
:100C30001200D8A002D00F8E10D008500DC008F0BE
:100C40000D6E07500CC007F00C6E06500BC006F07E
:100C50000B6E05500AC005F00A6E0D50085C10E0DE
:100C6000FF0F09E00F900FB403D00FAE0F841200F6
:100C70000FAE0F9412000D2AD8900C320B320A32AC
:100C80000A50055E0B50065A0C50075A07BEEAD7A9
:100C9000D890053606360736082EF8D7C8D77F0E07
:100CA000086EFF0E076E066E056E12007F0E0FBEF9
:100CB000FF0E086E02D07F0E086E800E076E066A69
:100CC000056AF3D70FAE04D0800E086E076AF7D717
:100CD000086A076AF4D70150001013101210F8E0E8
:100CE00003BEF0D701BE0CD002500310EBE0D89049
:100CF00012361336003601360206D8A00306F2D7A4
:100D00000350D4E10228D2E012AE11D07F0E1214AB
:100D100002E113A00CD0132AE86A0022012207E3A3
:100D2000D880013200321332022A0228BFE002507A
:100D3000C9E013C005F000C006F00134076E0230B0
:100D4000086E0732089E0FBE088E55EF06F0073674
:100D5000083602E30F840F7E06E10F80086A076AF7
:100D6000066A056A1200082803E0D88007321200DC
:100D7000D890073202E10F8212000F8612000C3663
:100D80000D3602E30F8C0F7E06E10F880D6A0C6AA8
:100D90000B6A0A6A12000D2803E0D8800C32120098
:0A0DA000D8900C32EAE10F8A12002D
:060DAA00340EF66E090E86
:100DB000F76E000EF86E00010900F550656F09002E
:100DC000F550666F03E1656701D03DD00900F5502D
:100DD000606F0900F550616F0900F550626F0900FE
:100DE0000900F550E96E0900F550EA6E09000900A6
:100DF0000900F550636F0900F550646F09000900A0
:100E0000F6CF67F0F7CF68F0F8CF69F060C0F6FF73
:100E100061C0F7FF62C0F8FF0001635302E1645351
:100E200007E00900F550EE6E6307F8E26407F9D7B2
:100E300067C0F6FF68C0F7FF69C0F8FF00016507EB
:080E4000000E665BBFD7120033
:080E4800000EF36E00EE00F055
:100E5000080E01D81200EA6002D0EE6AFCD7F35007
:080E6000E9601200EE6AFCD704
:080E680013EE00F023EE00F090
:100E7000F86A0F9CD5EC06F003EC00F0A0EC00F053
:040E8000FBD712008A
:0C0E8400FF0EE350226E1B0E00D001D0C8
:100E9000200EE76EE72EFED7222EFAD700D01200E2
:060EA0000000000000004C
:020000040030CA
:0100000000FF
:010001000CF2
:0100020019E4
:010003001EDE
:010005008179
:010006008178
:00000001FF
