:020000040000FA
:06000000F1EF04F0120014
:020006001200E6
:08000800DACFE4FFE2CFDAFFDA
:10001000E9CFE4FFEACFE4FFF6CFE4FFF7CFE4FF58
:10002000F3CFE4FFF4CFE4FFFACFE4FF00EE00F0FB
:10003000140EE80403E3EECFE4FFFBD7E652F2A28E
:100040000BD000DA04E10CDA5FEC02F0D7D9F292BF
:10005000010E00016A6F6B6BF0A00ED0BED9A5EC4B
:1000600003F0010A04E1FCD95EEC02F0C7D9F0907C
:10007000010E00016A6F6B6BF0A209D000016C6B7E
:100080006D6B6E6B6F6BF092010E6A6F6B6B9EA265
:1000900005D000016A2B000E6B239E92E55200EE04
:1000A00013F0140EE80403E3E5CFEDFFFBD7E5CF33
:1000B000FAFFE5CFF4FFE5CFF3FFE5CFF7FFE5CF9C
:1000C000F6FFE5CFEAFFE5CFE9FFE5CFDAFF110064
:1000D000C290C168070E936E956A966A946A0F0E75
:1000E0009BD9300EABD9380EA9D90F0EA7D9060E61
:1000F000A5D9010EA3D9020E8FD9D09EF28EF28C13
:10010000F288F086F088F292F090F092F19CF19AE9
:10011000F1989492CA80CA82CC6ACB689E929D82E2
:10012000BA80BA82BA84BA86CA84000EE66EE66ADB
:1001300029D9E552E5520001570E6A5D030E6B594D
:10014000FAE3020E7BD9200E6DD9500E6BD9570EF3
:1001500069D94D0E67D93A0E65D974D919E146D9D6
:100160007FD9F5EC02F005C014F006C015F007C009
:1001700016F008C017F00A6A0B6A400E0C6E420EA9
:100180000D6E5FEC02F048EC03F007504BD92ED90E
:1001900059D904E0310E46D929D928D9250E42D99A
:1001A0001CD920D904E1C10E49D956D97AD958D9D8
:1001B00019D905E1C10E42D9E66805D972D90A6A92
:1001C0000B6AA00E5AD905E161D9E668FCD86CD952
:1001D00043D90A6A0B6AF00E50D905E157D926D9DE
:1001E000E668F1D839D905D9420E54D907E1C10ED4
:1001F000E66E9CD80CD90BD9E55253D90A6A0B6A22
:10020000480E18D903E1E4D84FD926D90A6A0B6AF7
:10021000700E10D903E1DCD809D91ED90A6A0B6A1D
:100220008C0E08D904E1D4D801D9E668CCD80A6A82
:100230000B6AA00EFFD802E127D923D90A6A0B6AFC
:10024000B40EF8D804E120D9F1D8DB0EEBD80A6A55
:100250000B6AC80EEFD803E117D9E8D8E7D8166AB9
:10026000176A800E186E440E196E1E6A1F6AC80E39
:10027000206E420E216E6CC00AF06DC00BF06EC095
:100280000CF06FC00DF01EC005F01FC006F020C0BE
:1002900007F0086EF5EC02F005C01AF006C01BF07E
:1002A00007C01CF008C01DF005C00AF006C00BF026
:1002B00007C00CF008C00DF016C005F017C006F01E
:1002C00018C007F019C008F0F5EC02F06FEC03F06D
:1002D00006C014F007C015F006C0E6FF07C0E6FF31
:1002E00051D8E552E55200016A6B6B6B24D7D9CF28
:1002F000E6FFE1CFD9FFD950FD0FE96EFF0EDA20FE
:10030000EA6E000ED880EE54000EED540BE2320E71
:10031000E66EFFEC04F0E552FD0EDB06FE0EEBE2AE
:10032000DB06E9D7E552E7CFD9FF1200D9CFE6FFC8
:10033000E1CFD9FF84948490FE0EDB50836E8482DB
:10034000000000008492140EE66EFFEC04F0E5520B
:10035000E552E7CFD9FF1200D9CFE6FFE1CFD9FFB1
:1003600084948480FE0EDB50836E84820000000043
:100370008492140EE66EFFEC04F0E552E552E7CFEE
:10038000D9FF1200D9CFE6FFE1CFD9FFFD0EDBCFB9
:1003900014F0040ED8901436E804FCE10F0E14108B
:1003A000BA6EFD0EDBCF14F0FE0EDBCF15F0D89049
:1003B00015321432D890153214321450BB6EE552F7
:1003C000E7CFD9FF1200C8DFE5525BD854EF02F047
:1003D0005DD82CD862D00D6E47D00A6A0B6A0C6AC1
:1003E0000D6A42D09EEC03F0010A1200300E12EFAB
:1003F00002F00A6A0B6A200E0C6E120005C06CF047
:1004000006C06DF007C06EF008C06FF01200E55234
:100410000DD8E668ACEF01F0E66EE66A68DFE552FB
:10042000E5521200E66E98DFE5521200E66894DFAE
:10043000E55212000C6E420E4AEF02F0E66E76DFD5
:10044000E55212000A6A0B6AC80E0C6E420EC3DF38
:10045000AEEC03F0010A1200DB0EE66EE3EF01F0F2
:10046000C8DF410EEBEF01F06CC005F06DC006F087
:100470006EC007F06FC008F012000C6E410E4AEF1C
:1004800002F012D854EF02F0A3DF07D0C10ED6DF7E
:1004900016EF02F0A0DFF2EF01F0C8DFC7DF16EFC2
:0E04A00002F0EFDF2CEF02F0DB0E12EF02F0A5
:0204AE0001004B
:0C04B0001A0A00006A00000006000000AC
:0404BC000D7E0F6A38
:1004C00064EC04F07CEC04F00FB60CEF04F00FA227
:1004D0000AD00FAA03D00FBE0CEF04F00FA418EF40
:1004E00004F015EF04F00FAA05D00FAC18EF04F0DC
:1004F00015EF04F00FA00AD00FA808D00FBE04D04B
:100500000FA402D021EF04F025EF04F0126A036A71
:100510000D50085C116E10E305C013F006C000F02A
:1005200007C001F008C010F00AC005F00BC006F0CB
:100530000CC007F00F3A09D00AC013F00BC000F04E
:100540000CC001F00DC010F0116C0F9E0FBC0F8E8F
:1005500010C002F00FB054EF04F01A0E116054EF07
:1005600004F0026A086A0FA408D0056C061E071E74
:10057000081EE86A0622072208220FAC08D0136C76
:10058000001E011E021EE86A002201220222046AE5
:10059000115207E008340732063205320432112EB8
:1005A000F9D70550132606500022075001220850A3
:1005B000022204C012F00F9E02AE0BD0126C131E6A
:1005C000001E011E021EE86A1322002201220222DE
:1005D0000F8E02A006D0D8800132003213321232C0
:1005E000102A10C002F028EF04F00F6A64EC04F047
:1005F0007CEC04F00FB60CEF04F00FA205D00FBA9C
:100600000CEF04F013EF04F00FBA1FEF04F00FA08B
:1006100005D00FB80CEF04F01FEF04F00FB813EF84
:1006200004F0036A7F0E0824026EE86A03220D506C
:10063000025EE86A035A1A0E106E086A126A136A9A
:10064000006A016A0A50055E0B50065A0C50075AA0
:10065000000E085A09E70A5005260B5006220C50D6
:100660000722000E082201D0128AD89005360636DD
:1006700007360836D8901236133600360136102E5B
:10068000E1D7075006100510D8A4128A28EF04F00D
:100690000F6A64EC04F00FB652EF03F00FA20AD019
:1006A0000FB403D07F0E076E19D0800E076E16D0E0
:1006B000076A14D00FB0FCD7870E0860F1D77E0E02
:1006C0000864F6D7860E085C04E0D8900732082A42
:1006D000F9D70FA403D0076C07AEEAD712000F6A50
:1006E00064EC04F00FB679EF03F00FA20ED00FB454
:1006F00005D07F0E076EFF0E066E1FD0800E076EB0
:10070000066A1BD0076A066A18D00FB0FBD78F0E97
:100710000860EDD77E0E0864F5D78E0E085C05E004
:10072000D89007320632082AF8D70FA406D0066CF4
:10073000071EE86A072207AEE5D71200B7EC03F000
:100740000FB6000C0FB0010C000CB7EC03F00FB6A5
:10075000000C0FB0000C0FB4000C010CB7EC03F050
:100760000FB6000C0FB0000C0FA4000C010C0F6AA8
:1007700064EC04F07CEC04F00FB612000FAE08D06D
:100780000FA004D00FA802D00F8012000F9012000B
:100790000D50085C0BE10C50075C08E10B50065C47
:1007A00005E10A50055C02E10F801200D8A002D0DA
:1007B0000F8E10D008500DC008F00D6E07500CC001
:1007C00007F00C6E06500BC006F00B6E05500AC009
:1007D00005F00A6E0D50085C10E0FF0F09E00F9065
:1007E0000FB403D00FAE0F8412000FAE0F9412009F
:1007F0000D2AD8900C320B320A320A50055E0B508B
:10080000065A0C50075A07BEEAD7D8900536063666
:100810000736082EF8D7C8D77F0E086EFF0E076E72
:10082000066E056E12007F0E0FBEFF0E086E02D020
:100830007F0E086E800E076E066A056AF3D70FAE4C
:1008400004D0800E086E076AF7D7086A076AF4D7E3
:100850000150001013101210F8E003BEF0D701BED3
:100860000CD002500310EBE0D8901236133600364D
:1008700001360206D8A00306F2D70350D4E10228BD
:10088000D2E012AE11D07F0E121402E113A00CD0F0
:10089000132AE86A0022012207E3D88001320032DD
:1008A0001332022A0228BFE00250C9E013C005F04B
:1008B00000C006F00134076E0230086E0732089E51
:1008C0000FBE088E12EF04F00736083602E30F84DD
:1008D0000F7E06E10F80086A076A066A056A120041
:1008E000082803E0D88007321200D890073202E1CE
:1008F0000F8212000F8612000C360D3602E30F8CA9
:100900000F7E06E10F880D6A0C6A0B6A0A6A1200F4
:100910000D2803E0D8800C321200D8900C32EAE1A6
:040920000F8A120028
:0C092400AE0EF66E040EF76E000EF86EBC
:1009300000010900F550656F0900F550666F03E18D
:10094000656701D03DD00900F550606F0900F55092
:10095000616F0900F550626F09000900F550E96EFA
:100960000900F550EA6E090009000900F550636FAF
:100970000900F550646F09000900F6CF67F0F7CF62
:1009800068F0F8CF69F060C0F6FF61C0F7FF62C0A1
:10099000F8FF0001635302E1645307E00900F550DA
:1009A000EE6E6307F8E26407F9D767C0F6FF68C028
:1009B000F7FF69C0F8FF00016507000E665BBFD74F
:0209C000120023
:0E09C200000EF36E00EE00F0080E01D81200D9
:1009D000EA6002D0EE6AFCD7F350E9601200EE6ADA
:0209E000FCD742
:0E09E20013EE00F023EE00F0F86A0F9C92EC8A
:0E09F00004F003EC00F068EC00F0FBD71200FE
:0209FE00FF0EEA
:100A0000E350226E1B0E00D001D0200EE76EE72EC1
:0A0A1000FED7222EFAD700D0120004
:060A1A00000000000000D6
:020000040030CA
:0100000000FF
:010001000CF2
:0100020019E4
:010003001EDE
:010005008179
:010006008178
:00000001FF
