:020000040000FA
:0600000067EF02F01200A0
:020006001200E6
:08000800DACFE4FFE2CFDAFFDA
:10001000E9CFE4FFEACFE4FFF6CFE4FFF7CFE4FF58
:10002000F5CFE4FFF3CFE4FFF4CFE4FFFACFE4FF32
:1000300000EE00F0100EE80403E3EECFE4FFFBD780
:1000400000EE10F0020EE80403E3EECFE4FFFBD76E
:10005000E652F2A20DD00001E70E6A5D030E6B5965
:1000600003E36A6B6B6B03D06A2B000E6B23F29277
:10007000F0A010D00001000ED8806A55000E6B551C
:1000800005E3E70E6A6F030E6B6F03D06A07000E7D
:100090006B5BF090F0A222D000016A6B6B6B030ED9
:1000A0006A5D000E6B5917E2E66A1BD9E552E66AF3
:1000B0003BD9E552640EE66EE66AF7D8E552E552A2
:1000C000E66832D9E552E6680CD9E55200016A2BA0
:1000D000000E6B23E4D76A6B6B6BF092E55200EE77
:1000E00011F0020EE80403E3E5CFEDFFFBD700EECD
:1000F0000FF0100EE80403E3E5CFEDFFFBD7E5CFEB
:10010000FAFFE5CFF4FFE5CFF3FFE5CFF5FFE5CF4D
:10011000F7FFE5CFF6FFE5CFEAFFE5CFE9FFE5CF53
:10012000DAFF1100D9CFE6FFE1CFD9FF040EE126B7
:10013000DF6AC290C168070E936E956ADF6A0A0E85
:10014000DF5C14E2E66ACDD8E552E66AEDD8E55206
:10015000640EE66EE66AA9D8E552E552E668E4D890
:10016000E552E668BED8E552DF2AE9D7D09EF28E86
:10017000F28CF288F086F088F292F090F092F19C86
:10018000F19AF198640E106E116A6AC006F06BC0A5
:1001900007F010C00BF011C00CF031EC02F0010EB2
:1001A00006C0DBFF6AC010F06BC011F0640E0B6E6E
:1001B0000C6A10C006F011C007F031EC02F002C06A
:1001C00010F003C011F00A0E0B6E0C6A10C006F09E
:1001D00011C007F031EC02F006C010F007C011F0BA
:1001E000020E10C0DBFF6AC010F06BC011F0640E8D
:1001F0000B6E0C6A10C006F011C007F031EC02F073
:1002000002C010F003C011F00A0E0B6E0C6A10C091
:1002100006F011C007F031EC02F002C010F003C08C
:1002200011F0030E10C0DBFFE6687ED8E552010E28
:10023000E66E57D8E552010EDBCFE6FF75D8E552E2
:10024000010EE66EE66A31D8E552E552E6686CD8F2
:10025000E552020EE66E45D8E552020EDBCFE6FF10
:1002600063D8E552010EE66EE66A1FD8E552E55204
:10027000E6685AD8E552030EE66E33D8E552030E0F
:10028000DBCFE6FF51D8E552010EE66EE66A0DD8E7
:10029000E552E55277D7040EE15C02E2E16AE552ED
:1002A000E16EE552E7CFD9FF1200D9CFE6FFE1CFEB
:1002B000D9FFD950FD0FE96EFF0EDA20EA6EEE503D
:1002C000ED100BE0050EE66E47EC02F0E552FD0E78
:1002D000DB06FE0E01E2DB06ECD7E552E7CFD9FFE5
:1002E0001200D9CFE6FFE1CFD9FFFE0EDB50FF08A9
:1002F00001E1816AFE0EDB5002E1E00E816EFE0E2E
:10030000DB0402E1200E816EFE0EDB50020802E1EA
:10031000400E816EFE0EDB50030802E1800E816EFE
:10032000E552E7CFD9FF1200D9CFE6FFE1CFD9FFE1
:10033000FE0EDB50FF0801E1836AFE0EDB5002E196
:100340003F0E836EFE0EDB0402E1060E836EFE0E90
:10035000DB50020802E15B0E836EFE0EDB500308E9
:1003600002E14F0E836EFE0EDB50040802E1660EC2
:10037000836EFE0EDB50050802E16D0E836EFE0EED
:10038000DB50060802E17D0E836EFE0EDB5007088F
:1003900002E1070E836EFE0EDB50080802E17F0EBD
:1003A000836EFE0EDB50090802E16F0E836EE5528C
:0603B000E7CFD9FF1200A7
:0A03B6000100EA0400006A000000E4
:0403C0000200000037
:0C03C400B60EF66E030EF76E000EF86E1B
:1003D00000010900F550656F0900F550666F03E1F3
:1003E000656701D03DD00900F550606F0900F550F8
:1003F000616F0900F550626F09000900F550E96E60
:100400000900F550EA6E090009000900F550636F14
:100410000900F550646F09000900F6CF67F0F7CFC7
:1004200068F0F8CF69F060C0F6FF61C0F7FF62C006
:10043000F8FF0001635302E1645307E00900F5503F
:10044000EE6E6307F8E26407F9D767C0F6FF68C08D
:10045000F7FF69C0F8FF00016507000E665BBFD7B4
:02046000120088
:0E046200036A026A100EE76ED890063607365F
:10047000023603360B50025C0C50035805E30B5058
:0E048000025E0C50035A062AE72EF0D7120037
:02048E00FF0E5F
:10049000E350126E480E01D04C0EE76EE72EFED7E9
:0E04A000E76AE72EFED7122EF7D700001200F3
:0204AE00000E3E
:1004B000F36E00EE00F0080E01D81200EA6002D0E0
:0E04C000EE6AFCD7F350E9601200EE6AFCD73A
:0204CE0013EE2B
:1004D00000F023EE00F0F86A0F9CE2EC01F003EC70
:0A04E00000F092EC00F0FBD71200D0
:0204EA00000010
:020000040030CA
:0100000000FF
:010001000CF2
:0100020019E4
:010003001EDE
:010005008179
:010006008178
:00000001FF
