:020000040000FA
:0600000009EF01F01200FF
:020006000000F8
:08000800D9CFE6FFE1CFD9FFDB
:10001000040EE126DF6A010EDB6A020EDB6A030EC4
:10002000DB6AC290C168936ADF6A030EDF5C0EE28E
:100030008168640EE66EE2EC00F0E552816A640EBF
:10004000E66EE2EC00F0E552DF2AEFD7010EF36E28
:10005000030EF3CFDBFFE668E2EC00F0E552DE5280
:10006000080EDD6E010EDB5000083FE2010EDB04DE
:10007000E76E020EE7CFDBFFDB50000814E2030E51
:10008000DB50F36E020EDB5004E0D890F336E80646
:10009000FCE1F350816E640EE66EE2EC00F0E55296
:1000A000020EDB06E9D7020EDB6A010EDB04F36EFB
:1000B000020EDBCFF4FFF350F45C14E2030EDB50CE
:1000C000F36E020EDB5004E0D890F336E806FCE154
:1000D000F350816E640EE66EE2EC00F0E552020E23
:1000E000DB2AE3D7010EDB06BDD7550E816E370E36
:1000F000E66EE2EC00F0E552AA0E816E370EE66E77
:10010000E2EC00F0E552816AE668E2EC00F0E552CC
:100110008BD7040EE15C02E2E16AE552E16EE55242
:06012000E7CFD9FF120039
:0A012600060EF66E000EF76E000ED6
:10013000F86E00010900F550656F0900F550666F13
:1001400003E1656701D03DD00900F550606F0900FB
:10015000F550616F0900F550626F09000900F55014
:10016000E96E0900F550EA6E090009000900F55032
:10017000636F0900F550646F09000900F6CF67F05E
:10018000F7CF68F0F8CF69F060C0F6FF61C0F7FF05
:1001900062C0F8FF0001635302E1645307E0090005
:1001A000F550EE6E6307F8E26407F9D767C0F6FF13
:1001B00068C0F7FF69C0F8FF00016507000E665BC5
:0401C000BFD7120093
:0C01C400FF0EE350036EEF0E01D0F30EAF
:1001D000E76EE72EE9EF00F00C0E026EE76AE72EFD
:1001E000EFEF00F0022EEEEF00F0032EE7EF00F04D
:0201F0001200FB
:0E01F200000EF36E00EE00F0080E01D81200B1
:10020000EA6002D0EE6AFCD7F350E9601200EE6AB1
:02021000FCD719
:0E02120013EE00F023EE00F0F86A019C93EC6E
:0E02200000F017EC01F004EC00F0FBD7120028
:02022E001200BC
:020000040030CA
:0100000000FF
:010001000CF2
:0100020019E4
:010003001EDE
:010005008179
:010006008178
:00000001FF
