:020000040000FA
:060000003CEF01F01200CC
:020006000000F8
:08000800C3D8040EE126010E2D
:10001000DF6EDE52DD6E020EDB6A030EDB6AC2901B
:10002000C168956E936A010E8314DF6EA1D8DF500C
:1000300027E1020EDB6A0A0EF36E020EDBCFF4FF3D
:10004000F350F45C1DE2DF5004E1010E8314DF6E17
:10005000FAD7020EDBCFE6FF92D8010E8314DF6ED3
:10006000640EE66E33D8E552DF5007E1010E8314CB
:10007000DF6EDF04D8E0DF6AF7D7020EDB2ADBD7BA
:10008000010EDB50D0E10A0EF36E020EF3CFDBFF60
:10009000DB500008C8E2010EDB5002E169D8FBD753
:1000A000020EDB04E66E6BD863D8640EE66E0ED8E3
:1000B000E552010EDB5007E15BD8DB500208B3E0EC
:1000C000010EDB6AF6D7020EDB06E2D761D8E652F4
:1000D000DF6ADF6AFE0EDB50DF5C07E2050EE66ECC
:1000E0001CEC01F0E552DF2AF5D7E552E552E7CFE7
:1000F000D9FF12004DD8FE0EDB5002E13F0E34D086
:10010000FE0EDB0402E1060E2FD0FE0EDB500208CD
:1001100002E15B0E29D0FE0EDB50030802E14F0E18
:1001200023D0FE0EDB50040802E1660E1DD0FE0E49
:10013000DB50050802E16D0E17D0FE0EDB500608FD
:1001400002E17D0E11D0FE0EDB50070802E1070E22
:100150000BD0FE0EDB50080802E17F0E05D0FE0E2C
:10016000DB50090801E16F0EE552E7CFD9FF12001D
:10017000020E8314E76E010EE7CFDBFF1200BADF39
:10018000E552E76E030EE7CFDBFFDB50816E120016
:0A019000D9CFE6FFE1CFD9FF12003E
:06019A00060EF66E000ED9
:1001A000F76E000EF86E00010900F550656F09004A
:1001B000F550666F03E1656701D03DD00900F55049
:1001C000606F0900F550616F0900F550626F09001A
:1001D0000900F550E96E0900F550EA6E09000900C2
:1001E0000900F550636F0900F550646F09000900BC
:1001F000F6CF67F0F7CF68F0F8CF69F060C0F6FF90
:1002000061C0F7FF62C0F8FF0001635302E164536D
:1002100007E00900F550EE6E6307F8E26407F9D7CE
:1002200067C0F6FF68C0F7FF69C0F8FF0001650707
:08023000000E665BBFD712004F
:08023800FF0EE350026E480EB8
:1002400001D04C0EE76EE72EFED7E76AE72EFED709
:08025000022EF7D70000120096
:08025800000EF36E00EE00F051
:10026000080E01D81200EA6002D0EE6AFCD7F35003
:08027000E9601200EE6AFCD700
:0802780013EE00F023EE00F08C
:10028000F86A019CCDEC00F04AEC01F004EC00F0BF
:04029000FBD7120086
:02029400120056
:020000040030CA
:0100000000FF
:010001000CF2
:0100020019E4
:010003001EDE
:010005008179
:010006008178
:00000001FF
