:020000040000FA
:06000000C9EF01F012003F
:020006001200E6
:08000800DACFE4FFE652F2A298
:100010000BD00001010E6A6F6D5104E1010E6D6F8E
:100020006C6B01D06D6BF292F0A004D00001020E57
:100030006A6FF090F0A204D00001030E6A6FF09294
:100040009EA203D000016B2B9E92E552E5CFDAFF12
:100050001100C290C168926A070E936E946A956A05
:10006000966AD09EF28EF28CF288F086F088F29238
:10007000F090F092F19CF19AF198510ECA6ECC6A10
:10008000FA0ECB6E9E929D826EC0E6FFCAD8E552F4
:1000900000016D0502E0000E01D0010E026E6A053E
:1000A00002E0000E01D0010E021401E18FD0CA84DB
:1000B0006C5102E1010E716F6C0502E0000E01D07F
:1000C000010E026E6B5102E1000E01D0010E02140E
:1000D00024E1020E6C5D02E0000E01D0010E026E02
:1000E0006B5102E1000E01D0010E021449E1080E2D
:1000F0006F6F6F5100086AE26F05706F70510008F2
:100100002FE2010E6C6F715170C0E7FFE75204E0FF
:10011000E846FE0BE706FCE1836E00016A0502E09B
:10012000000E01D0010E026E640E6B5D02E1000E46
:1001300001D0010E0214F1E16D5102E0000E01D078
:10014000010E026E6A0502E1000E01D0010E0210DE
:100150009FE1640E6B6FE85001E06B6B7007CED7C8
:10016000706B6F05705D30E2020E6C6F715170C084
:10017000E7FFE75204E0E846FE0BE706FCE1836E8A
:1001800000016A0502E0000E01D0010E026E640E4D
:100190006B5D02E1000E01D0010E0214F1E16D5120
:1001A00002E0000E01D0010E026E6A0502E1000EAF
:1001B00001D0010E021001E06BD7640E6B6FE850A6
:1001C00001E06B6B702BCDD76F0793D7020E6A5D82
:1001D00011E1090E6E5D02E26E2B01D06E6B6EC0F6
:1001E000E6FF1FD8E55200016D0503E1010E6A6FBD
:1001F00001D06A6B030E6A5D01E04AD76E510008B8
:1002000002E26E0702D0090E6E6F6EC0E6FF09D8DB
:10021000E55200016D0503E1010E6A6F39D76A6B83
:1002200037D7D9CFE6FFE1CFD9FFFE0EDB50FF086D
:1002300002E1806A846AFE0EDB5003E13F0E806EAD
:10024000846AFE0EDB0403E1060E806E846AFE0EF5
:10025000DB50020803E15B0E806E8468FE0EDB500B
:10026000030803E14F0E806E8468FE0EDB50040825
:1002700003E1660E806E8468FE0EDB50050803E124
:100280006D0E806E8468FE0EDB50060803E17D0E65
:10029000806E8468FE0EDB50070803E1070E806E57
:1002A000846AFE0EDB50080803E17F0E806E8468CE
:1002B000FE0EDB50090803E16F0E806E8468E55284
:0602C000E7CFD9FF120098
:0A02C6000100AE0300006A00000012
:0402D0000800000022
:0C02D400C60EF66E020EF76E000EF86EFD
:1002E00000010900F550656F0900F550666F03E1E4
:1002F000656701D03DD00900F550606F0900F550E9
:10030000616F0900F550626F09000900F550E96E50
:100310000900F550EA6E090009000900F550636F05
:100320000900F550646F09000900F6CF67F0F7CFB8
:1003300068F0F8CF69F060C0F6FF61C0F7FF62C0F7
:10034000F8FF0001635302E1645307E00900F55030
:10035000EE6E6307F8E26407F9D767C0F6FF68C07E
:10036000F7FF69C0F8FF00016507000E665BBFD7A5
:02037000120079
:0E037200000EF36E00EE00F0080E01D812002F
:10038000EA6002D0EE6AFCD7F350E9601200EE6A30
:02039000FCD798
:0E03920013EE00F023EE00F0F86A019C6AEC16
:0E03A00001F003EC00F029EC00F0FBD7120096
:0203AE0000004D
:0603B00000000000000047
:020000040030CA
:0100000000FF
:010001000CF2
:0100020019E4
:010003001EDE
:010005008179
:010006008178
:00000001FF
