:020000040000FA
:0600000086EF01F0120082
:020006001200E6
:08000800DACFE4FFE2CFDAFFDA
:10001000E652F2A204D00001010E6A6FF292F0A043
:1000200004D00001020E6A6FF090F0A204D000012B
:10003000030E6A6FF092E552E5CFDAFF1100C2902D
:10004000C168070E936E956A966A946A0F0EE66E03
:10005000E66AA5D8E552E552300EE66EBFD8E55205
:10006000380EE66EBBD8E5520F0EE66EB7D8E552F5
:10007000060EE66EB3D8E552010EE66EAFD8E55235
:10008000020EE66EE66A8BD8E552E552D09EF28EFD
:10009000F28CF288F086F088F292F090F092F19C67
:1000A000F19AF19800016A052EE1200EE66EAFD8B4
:1000B000E552200EE66EABD8E552200EE66EA7D8CC
:1000C000E552200EE66EA3D8E552200EE66E9FD8CC
:1000D000E552200EE66E9BD8E552490EE66E97D8A3
:1000E000E552460EE66E93D8E552500EE66E8FD876
:1000F000E552520EE66E8BD8E552020EE66E6ED8D1
:10010000E55200016A6B020E6A5D3AE1C10EE66ECD
:1001100065D8E552200EE66E7AD8E552200EE66EDE
:1001200076D8E552450EE66E72D8E5524C0EE66E74
:100130006ED8E552450EE66E6AD8E552540EE66E6C
:1001400066D8E552520EE66E62D8E5524F0EE66E64
:100150005ED8E5524E0EE66E5AD8E552490EE66E6E
:1001600056D8E552430EE66E52D8E552410EE66E81
:100170004ED8E552020EE66E31D8E55200016A6BA8
:10018000030E6A5D0AE1010EE66E28D8E552020E02
:10019000E66E24D8E55200016A6B84D71200D9CFED
:1001A000E6FFE1CFD9FFD950FD0FE96EFF0EDA204F
:1001B000EA6E000ED880EE54000EED540BE2050EF0
:1001C000E66E94EC01F0E552FD0EDB06FE0E01E258
:1001D000DB06E9D7E552E7CFD9FF1200D9CFE6FF1A
:1001E000E1CFD9FF84928490FE0EDB50836EFE0E29
:1001F000DB50826E8484000000008494140EE66E4E
:10020000A2EC01F0E552E552E7CFD9FF1200D9CFB9
:10021000E6FFE1CFD9FF84928480FE0EDB50836E2F
:10022000FE0EDB50826E8484000000008494140E65
:10023000E66EA2EC01F0E552E552E7CFD9FF1200DD
:0E02400001005A0300006A00000001000000E7
:02024E00400E60
:10025000F66E020EF76E000EF86E00010900F55002
:10026000656F0900F550666F03E1656701D03DD009
:100270000900F550606F0900F550616F0900F550F5
:10028000626F09000900F550E96E0900F550EA6E49
:10029000090009000900F550636F0900F550646F0B
:1002A00009000900F6CF67F0F7CF68F0F8CF69F0E2
:1002B00060C0F6FF61C0F7FF62C0F8FF0001635342
:1002C00002E1645307E00900F550EE6E6307F8E2BF
:1002D0006407F9D767C0F6FF68C0F7FF69C0F8FF89
:0C02E00000016507000E665BBFD712002E
:0402EC00000EF36E9F
:1002F00000EE00F0080E01D81200EA6002D0EE6AAB
:0C030000FCD7F350E9601200EE6AFCD755
:04030C0013EE00F0FC
:1003100023EE00F0F86A019C27EC01F003EC00F0FA
:080320001FEC00F0FBD71200F6
:08032800FF0EE350026E1B0EF4
:1003300000D001D0200EE76EE72EFED7022EFAD7AE
:0403400000D01200D7
:0C034400FF0EE350E84E1200000000D055
:0A03500000D000D0E82EFAD712000A
:01035A0000A2
:020000040030CA
:0100000000FF
:010001000CF2
:0100020019E4
:010003001EDE
:010005008179
:010006008178
:00000001FF
