:020000040000FA
:060000007CEF01F012008C
:020006001200E6
:08000800DACFE4FFE652F2A298
:1000100004D00001010E6A6FF292F0A004D000013A
:10002000020E6A6FF090F0A204D00001030E6A6F16
:10003000F092E552E5CFDAFF1100C290C168070ED9
:10004000936E956A966A0F0EE66EE66AA4D8E5523C
:10005000E552300EE66EBED8E552380EE66EBAD8DE
:10006000E5520F0EE66EB6D8E552060EE66EB2D831
:10007000E552010EE66EAED8E552020EE66EE66A75
:100080008AD8E552E552D09EF28EF28CF288F08644
:10009000F088F292F090F092F19CF19AF1980001C0
:1000A0006A052EE1200EE66EABD8E552200EE66E14
:1000B000A7D8E552200EE66EA3D8E552200EE66ED4
:1000C0009FD8E552200EE66E9BD8E552200EE66ED4
:1000D00097D8E552490EE66E93D8E552460EE66E85
:1000E0008FD8E552500EE66E8BD8E552520EE66E72
:1000F00087D8E552020EE66E6DD8E55200016A6BB4
:10010000020E6A5D3AE1C10EE66E64D8E552200E39
:10011000E66E76D8E552200EE66E72D8E552450EB0
:10012000E66E6ED8E5524C0EE66E6AD8E552450E84
:10013000E66E66D8E552540EE66E62D8E552520E6F
:10014000E66E5ED8E5524F0EE66E5AD8E5524E0E78
:10015000E66E56D8E552490EE66E52D8E552430E89
:10016000E66E4ED8E552410EE66E4AD8E552020ED2
:10017000E66E30D8E55200016A6B030E6A5D8FE1CE
:10018000010EE66E27D8E552020EE66E23D8E55240
:1001900000016A6B84D7D9CFE6FFE1CFD9FFD950F0
:1001A000FD0FE96EFF0EDA20EA6E000ED880EE54E5
:1001B000000EED540BE2050EE66E8AEC01F0E552FE
:1001C000FD0EDB06FE0EEBE2DB06E9D7E552E7CFDC
:1001D000D9FF1200D9CFE6FFE1CFD9FF84928490F6
:1001E000FE0EDB50836E8484000000008494140EA5
:1001F000E66E98EC01F0E552E552E7CFD9FF120028
:10020000D9CFE6FFE1CFD9FF84928480FE0EDB5088
:10021000836E8484000000008494140EE66E98ECD3
:0C02200001F0E552E552E7CFD9FF1200D3
:04022C000100460384
:0A02300000006A0000000100000059
:06023A002C0EF66E020E10
:10024000F76E000EF86E00010900F550656F0900A9
:10025000F550666F03E1656701D03DD00900F550A8
:10026000606F0900F550616F0900F550626F090079
:100270000900F550E96E0900F550EA6E0900090021
:100280000900F550636F0900F550646F090009001B
:10029000F6CF67F0F7CF68F0F8CF69F060C0F6FFEF
:1002A00061C0F7FF62C0F8FF0001635302E16453CD
:1002B00007E00900F550EE6E6307F8E26407F9D72E
:1002C00067C0F6FF68C0F7FF69C0F8FF0001650767
:0802D000000E665BBFD71200AF
:0802D800000EF36E00EE00F0D1
:1002E000080E01D81200EA6002D0EE6AFCD7F35083
:0802F000E9601200EE6AFCD780
:0802F80013EE00F023EE00F00C
:10030000F86A019C1DEC01F003EC00F01DEC00F01C
:04031000FBD7120005
:0C031400FF0EE350026E1B0E00D001D063
:10032000200EE76EE72EFED7022EFAD700D012007D
:10033000FF0EE350E84E1200000000D000D000D0C5
:06034000E82EFAD71200BE
:0103460000B6
:020000040030CA
:0100000000FF
:010001000CF2
:0100020019E4
:010003001EDE
:010005008179
:010006008178
:00000001FF
