:020000040000FA
:060000006BEF01F012009D
:020006000000F8
:08000800D9CFE6FFE1CFD9FFDB
:10001000040EE126010EDF6EDE52DD6E020EDB6A9B
:10002000030EDB6AC290C168956E936A010E831459
:10003000DF6E020E8314E76E010EE7CFDBFFDF50A9
:1000400032E1020EDB6A0A0EF36E020EDBCFF4FF22
:10005000F350F45C28E2DF5004E1010E8314DF6EFC
:10006000FAD7020EDBCFE6FF85D8E552E76E030E26
:10007000E7CFDBFFDB50816E010E8314DF6E2C0EA9
:10008000E66E010EE66E5AD8E552E552DF5008E101
:10009000010E8314DF6EDF0401E1C8D7DF6AF6D7F3
:1000A000020EDB2AD0D7010EDB503DE10A0EF36EC3
:1000B000020EF3CFDBFFDB50000835E2010EDB5010
:1000C00007E1020E8314E76E010EE7CFDBFFF6D7E0
:1000D000020EDB04E66E4ED8E552E76E030EE7CF64
:1000E000DBFFDB50816E020E8314E76E010EE7CF5B
:1000F000DBFF2C0EE66E010EE66E20D8E552E552CF
:10010000010EDB500DE1020E8314E76E010EE7CF06
:10011000DBFFDB50020801E189D7010EDB6AF0D773
:10012000020EDB06C8D782D7040EE15C02E2E16A68
:10013000E552E16EE552E7CFD9FF1200D9CFE6FFD5
:10014000E1CFD9FFD950FD0FE96EFF0EDA20EA6E3C
:10015000EE50ED100BE0050EE66E4BEC01F0E552B3
:10016000FD0EDB06FE0E01E2DB06ECD7E552E7CF23
:10017000D9FF1200D9CFE6FFE1CFD9FFFE0EDB5049
:1001800002E13F0E35D0FE0EDB0402E1060E30D058
:10019000FE0EDB50020802E15B0E2AD0FE0EDB50A1
:1001A000030802E14F0E24D0FE0EDB50040802E1EA
:1001B000660E1ED0FE0EDB50050802E16D0E18D053
:1001C000FE0EDB50060802E17D0E12D0FE0EDB5063
:1001D000070802E1070E0CD0FE0EDB50080802E112
:1001E0007F0E06D0FE0EDB50090802E16F0E00D034
:0801F000E552E7CFD9FF120030
:0801F800060EF66E000EF76E14
:10020000000EF86E00010900F550656F0900F55009
:10021000666F03E1656701D03DD00900F550606F5E
:100220000900F550616F0900F550626F090009007F
:10023000F550E96E0900F550EA6E09000900090061
:10024000F550636F0900F550646F09000900F6CF9F
:1002500067F0F7CF68F0F8CF69F060C0F6FF61C0D3
:10026000F7FF62C0F8FF0001635302E1645307E047
:100270000900F550EE6E6307F8E26407F9D767C02E
:10028000F6FF68C0F7FF69C0F8FF00016507000EC0
:06029000665BBFD71200FF
:0A029600FF0EE350026E480E01D087
:1002A0004C0EE76EE72EFED7E76AE72EFED7022E4A
:0602B000F7D70000120068
:0A02B600000EF36E00EE00F0080EDB
:1002C00001D81200EA6002D0EE6AFCD7F350E96070
:0602D0001200EE6AFCD7EB
:0A02D60013EE00F023EE00F0F86ACA
:1002E000019CFCEC00F079EC01F004EC00F0FBD791
:0202F0001200FA
:0202F2001200F8
:020000040030CA
:0100000000FF
:010001000CF2
:0100020019E4
:010003001EDE
:010005008179
:010006008178
:00000001FF
